{
  "contractName": "DecentralizedVoting",
  "abi": [
    {
      "inputs": [],
      "stateMutability": "nonpayable",
      "type": "constructor"
    },
    {
      "anonymous": false,
      "inputs": [
        {
          "indexed": false,
          "internalType": "uint256",
          "name": "electionId",
          "type": "uint256"
        },
        {
          "indexed": false,
          "internalType": "string",
          "name": "name",
          "type": "string"
        }
      ],
      "name": "CandidateAdded",
      "type": "event"
    },
    {
      "anonymous": false,
      "inputs": [
        {
          "indexed": false,
          "internalType": "uint256",
          "name": "electionId",
          "type": "uint256"
        },
        {
          "indexed": false,
          "internalType": "string",
          "name": "name",
          "type": "string"
        }
      ],
      "name": "ElectionCreated",
      "type": "event"
    },
    {
      "anonymous": false,
      "inputs": [
        {
          "indexed": false,
          "internalType": "uint256",
          "name": "electionId",
          "type": "uint256"
        },
        {
          "indexed": false,
          "internalType": "uint256[]",
          "name": "candidateIndex",
          "type": "uint256[]"
        },
        {
          "indexed": false,
          "internalType": "address",
          "name": "voter",
          "type": "address"
        }
      ],
      "name": "Voted",
      "type": "event"
    },
    {
      "inputs": [],
      "name": "electionCount",
      "outputs": [
        {
          "internalType": "uint256",
          "name": "",
          "type": "uint256"
        }
      ],
      "stateMutability": "view",
      "type": "function",
      "constant": true
    },
    {
      "inputs": [
        {
          "internalType": "uint256",
          "name": "",
          "type": "uint256"
        }
      ],
      "name": "elections",
      "outputs": [
        {
          "internalType": "string",
          "name": "name",
          "type": "string"
        },
        {
          "internalType": "bool",
          "name": "active",
          "type": "bool"
        },
        {
          "internalType": "string",
          "name": "startDate",
          "type": "string"
        },
        {
          "internalType": "string",
          "name": "endDate",
          "type": "string"
        },
        {
          "internalType": "string",
          "name": "domainFilter",
          "type": "string"
        }
      ],
      "stateMutability": "view",
      "type": "function",
      "constant": true
    },
    {
      "inputs": [
        {
          "internalType": "address",
          "name": "",
          "type": "address"
        }
      ],
      "name": "org",
      "outputs": [
        {
          "internalType": "string",
          "name": "orgName",
          "type": "string"
        },
        {
          "internalType": "string",
          "name": "userName",
          "type": "string"
        },
        {
          "internalType": "string",
          "name": "email",
          "type": "string"
        }
      ],
      "stateMutability": "view",
      "type": "function",
      "constant": true
    },
    {
      "inputs": [
        {
          "internalType": "address",
          "name": "",
          "type": "address"
        },
        {
          "internalType": "uint256",
          "name": "",
          "type": "uint256"
        }
      ],
      "name": "ownedElections",
      "outputs": [
        {
          "internalType": "uint256",
          "name": "electionId",
          "type": "uint256"
        },
        {
          "internalType": "string",
          "name": "electionName",
          "type": "string"
        }
      ],
      "stateMutability": "view",
      "type": "function",
      "constant": true
    },
    {
      "inputs": [
        {
          "internalType": "address",
          "name": "",
          "type": "address"
        }
      ],
      "name": "users",
      "outputs": [
        {
          "internalType": "string",
          "name": "userName",
          "type": "string"
        },
        {
          "internalType": "string",
          "name": "email",
          "type": "string"
        }
      ],
      "stateMutability": "view",
      "type": "function",
      "constant": true
    },
    {
      "inputs": [
        {
          "internalType": "string",
          "name": "_name",
          "type": "string"
        },
        {
          "internalType": "string",
          "name": "_startDate",
          "type": "string"
        },
        {
          "internalType": "string",
          "name": "_endDate",
          "type": "string"
        },
        {
          "internalType": "string",
          "name": "_domainFilter",
          "type": "string"
        }
      ],
      "name": "createElection",
      "outputs": [],
      "stateMutability": "nonpayable",
      "type": "function"
    },
    {
      "inputs": [
        {
          "internalType": "uint256",
          "name": "_electionId",
          "type": "uint256"
        },
        {
          "internalType": "string",
          "name": "_newName",
          "type": "string"
        },
        {
          "internalType": "string",
          "name": "_startDate",
          "type": "string"
        },
        {
          "internalType": "string",
          "name": "_endDate",
          "type": "string"
        },
        {
          "internalType": "string",
          "name": "_newDomainFilter",
          "type": "string"
        }
      ],
      "name": "updateElectionDetails",
      "outputs": [],
      "stateMutability": "nonpayable",
      "type": "function"
    },
    {
      "inputs": [
        {
          "internalType": "address",
          "name": "organizer",
          "type": "address"
        }
      ],
      "name": "getOwnedElections",
      "outputs": [
        {
          "components": [
            {
              "internalType": "uint256",
              "name": "electionId",
              "type": "uint256"
            },
            {
              "internalType": "string",
              "name": "electionName",
              "type": "string"
            }
          ],
          "internalType": "struct DecentralizedVoting.CreatedElections[]",
          "name": "",
          "type": "tuple[]"
        }
      ],
      "stateMutability": "view",
      "type": "function",
      "constant": true
    },
    {
      "inputs": [
        {
          "internalType": "address",
          "name": "organizer",
          "type": "address"
        }
      ],
      "name": "getOwnedElectionIds",
      "outputs": [
        {
          "internalType": "uint256[]",
          "name": "",
          "type": "uint256[]"
        }
      ],
      "stateMutability": "view",
      "type": "function",
      "constant": true
    },
    {
      "inputs": [
        {
          "internalType": "address",
          "name": "organizer",
          "type": "address"
        }
      ],
      "name": "getOwnedElectionNames",
      "outputs": [
        {
          "internalType": "string[]",
          "name": "",
          "type": "string[]"
        }
      ],
      "stateMutability": "view",
      "type": "function",
      "constant": true
    },
    {
      "inputs": [
        {
          "internalType": "address",
          "name": "organizer",
          "type": "address"
        },
        {
          "internalType": "string",
          "name": "_name",
          "type": "string"
        }
      ],
      "name": "getElectionIdByName",
      "outputs": [
        {
          "internalType": "uint256",
          "name": "",
          "type": "uint256"
        }
      ],
      "stateMutability": "view",
      "type": "function",
      "constant": true
    },
    {
      "inputs": [
        {
          "internalType": "uint256",
          "name": "_electionId",
          "type": "uint256"
        }
      ],
      "name": "getElectionResults",
      "outputs": [
        {
          "internalType": "string",
          "name": "",
          "type": "string"
        },
        {
          "internalType": "uint256[]",
          "name": "",
          "type": "uint256[]"
        }
      ],
      "stateMutability": "view",
      "type": "function",
      "constant": true
    },
    {
      "inputs": [
        {
          "internalType": "uint256",
          "name": "_electionId",
          "type": "uint256"
        }
      ],
      "name": "getElectionName",
      "outputs": [
        {
          "internalType": "string",
          "name": "",
          "type": "string"
        }
      ],
      "stateMutability": "view",
      "type": "function",
      "constant": true
    },
    {
      "inputs": [
        {
          "internalType": "uint256",
          "name": "_electionId",
          "type": "uint256"
        }
      ],
      "name": "closeElection",
      "outputs": [],
      "stateMutability": "nonpayable",
      "type": "function"
    },
    {
      "inputs": [],
      "name": "getElectionNames",
      "outputs": [
        {
          "internalType": "string[]",
          "name": "",
          "type": "string[]"
        }
      ],
      "stateMutability": "view",
      "type": "function",
      "constant": true
    },
    {
      "inputs": [
        {
          "internalType": "uint256",
          "name": "_electionId",
          "type": "uint256"
        }
      ],
      "name": "getElectionStartDate",
      "outputs": [
        {
          "internalType": "string",
          "name": "",
          "type": "string"
        }
      ],
      "stateMutability": "view",
      "type": "function",
      "constant": true
    },
    {
      "inputs": [
        {
          "internalType": "uint256",
          "name": "_electionId",
          "type": "uint256"
        }
      ],
      "name": "getElectionEndDate",
      "outputs": [
        {
          "internalType": "string",
          "name": "",
          "type": "string"
        }
      ],
      "stateMutability": "view",
      "type": "function",
      "constant": true
    },
    {
      "inputs": [
        {
          "internalType": "uint256",
          "name": "_electionId",
          "type": "uint256"
        }
      ],
      "name": "getElectionDomainFilter",
      "outputs": [
        {
          "internalType": "string",
          "name": "",
          "type": "string"
        }
      ],
      "stateMutability": "view",
      "type": "function",
      "constant": true
    },
    {
      "inputs": [
        {
          "internalType": "uint256",
          "name": "_electionId",
          "type": "uint256"
        }
      ],
      "name": "getElectionStatus",
      "outputs": [
        {
          "internalType": "bool",
          "name": "",
          "type": "bool"
        }
      ],
      "stateMutability": "view",
      "type": "function",
      "constant": true
    },
    {
      "inputs": [
        {
          "internalType": "uint256",
          "name": "_electionId",
          "type": "uint256"
        },
        {
          "internalType": "string",
          "name": "_candidateName",
          "type": "string"
        },
        {
          "internalType": "string",
          "name": "_candidatePosition",
          "type": "string"
        },
        {
          "internalType": "string",
          "name": "_platform",
          "type": "string"
        },
        {
          "internalType": "string",
          "name": "_cdn",
          "type": "string"
        }
      ],
      "name": "addCandidate",
      "outputs": [],
      "stateMutability": "nonpayable",
      "type": "function"
    },
    {
      "inputs": [
        {
          "internalType": "uint256",
          "name": "_electionId",
          "type": "uint256"
        },
        {
          "internalType": "string[]",
          "name": "_candidateNames",
          "type": "string[]"
        },
        {
          "internalType": "string[]",
          "name": "_candidatePositions",
          "type": "string[]"
        },
        {
          "internalType": "string[]",
          "name": "_platforms",
          "type": "string[]"
        },
        {
          "internalType": "string[]",
          "name": "_cdns",
          "type": "string[]"
        }
      ],
      "name": "addMultipleCandidates",
      "outputs": [],
      "stateMutability": "nonpayable",
      "type": "function"
    },
    {
      "inputs": [
        {
          "internalType": "uint256",
          "name": "_electionId",
          "type": "uint256"
        },
        {
          "internalType": "uint256",
          "name": "_candidateIndex",
          "type": "uint256"
        },
        {
          "internalType": "string",
          "name": "_newName",
          "type": "string"
        },
        {
          "internalType": "string",
          "name": "_newPosition",
          "type": "string"
        },
        {
          "internalType": "string",
          "name": "_newPlatform",
          "type": "string"
        },
        {
          "internalType": "string",
          "name": "_newcdn",
          "type": "string"
        }
      ],
      "name": "updateCandidateInfo",
      "outputs": [],
      "stateMutability": "nonpayable",
      "type": "function"
    },
    {
      "inputs": [
        {
          "internalType": "uint256",
          "name": "_electionId",
          "type": "uint256"
        },
        {
          "internalType": "uint256",
          "name": "_candidateIndex",
          "type": "uint256"
        }
      ],
      "name": "deleteCandidate",
      "outputs": [],
      "stateMutability": "nonpayable",
      "type": "function"
    },
    {
      "inputs": [
        {
          "internalType": "uint256",
          "name": "_electionId",
          "type": "uint256"
        }
      ],
      "name": "getCandidatesCount",
      "outputs": [
        {
          "internalType": "uint256",
          "name": "",
          "type": "uint256"
        }
      ],
      "stateMutability": "view",
      "type": "function",
      "constant": true
    },
    {
      "inputs": [
        {
          "internalType": "uint256",
          "name": "_electionId",
          "type": "uint256"
        },
        {
          "internalType": "uint256",
          "name": "_candidateIndex",
          "type": "uint256"
        }
      ],
      "name": "getCandidateName",
      "outputs": [
        {
          "internalType": "string",
          "name": "",
          "type": "string"
        }
      ],
      "stateMutability": "view",
      "type": "function",
      "constant": true
    },
    {
      "inputs": [
        {
          "internalType": "uint256",
          "name": "_electionId",
          "type": "uint256"
        },
        {
          "internalType": "uint256",
          "name": "_candidateIndex",
          "type": "uint256"
        }
      ],
      "name": "getCandidatePosition",
      "outputs": [
        {
          "internalType": "string",
          "name": "",
          "type": "string"
        }
      ],
      "stateMutability": "view",
      "type": "function",
      "constant": true
    },
    {
      "inputs": [
        {
          "internalType": "uint256",
          "name": "_electionId",
          "type": "uint256"
        },
        {
          "internalType": "uint256",
          "name": "_candidateIndex",
          "type": "uint256"
        }
      ],
      "name": "getCandidatePlatform",
      "outputs": [
        {
          "internalType": "string",
          "name": "",
          "type": "string"
        }
      ],
      "stateMutability": "view",
      "type": "function",
      "constant": true
    },
    {
      "inputs": [
        {
          "internalType": "uint256",
          "name": "_electionId",
          "type": "uint256"
        },
        {
          "internalType": "uint256",
          "name": "_candidateIndex",
          "type": "uint256"
        }
      ],
      "name": "getCandidateCdn",
      "outputs": [
        {
          "internalType": "string",
          "name": "",
          "type": "string"
        }
      ],
      "stateMutability": "view",
      "type": "function",
      "constant": true
    },
    {
      "inputs": [
        {
          "internalType": "uint256",
          "name": "_electionId",
          "type": "uint256"
        }
      ],
      "name": "getCandidateNames",
      "outputs": [
        {
          "internalType": "string[]",
          "name": "",
          "type": "string[]"
        }
      ],
      "stateMutability": "view",
      "type": "function",
      "constant": true
    },
    {
      "inputs": [
        {
          "internalType": "uint256",
          "name": "_electionId",
          "type": "uint256"
        },
        {
          "internalType": "string",
          "name": "_candidateName",
          "type": "string"
        }
      ],
      "name": "getCandidateIDbyName",
      "outputs": [
        {
          "internalType": "uint256",
          "name": "",
          "type": "uint256"
        }
      ],
      "stateMutability": "view",
      "type": "function",
      "constant": true
    },
    {
      "inputs": [
        {
          "internalType": "uint256",
          "name": "_electionId",
          "type": "uint256"
        },
        {
          "internalType": "uint256",
          "name": "_candidateIndex",
          "type": "uint256"
        }
      ],
      "name": "getCandidateVoteCount",
      "outputs": [
        {
          "internalType": "uint256",
          "name": "",
          "type": "uint256"
        }
      ],
      "stateMutability": "view",
      "type": "function",
      "constant": true
    },
    {
      "inputs": [
        {
          "internalType": "string",
          "name": "orgName",
          "type": "string"
        },
        {
          "internalType": "string",
          "name": "name",
          "type": "string"
        },
        {
          "internalType": "string",
          "name": "email",
          "type": "string"
        }
      ],
      "name": "addOrg",
      "outputs": [],
      "stateMutability": "nonpayable",
      "type": "function"
    },
    {
      "inputs": [
        {
          "internalType": "address",
          "name": "orgAddress",
          "type": "address"
        }
      ],
      "name": "isOrg",
      "outputs": [
        {
          "internalType": "bool",
          "name": "",
          "type": "bool"
        }
      ],
      "stateMutability": "view",
      "type": "function",
      "constant": true
    },
    {
      "inputs": [
        {
          "internalType": "address",
          "name": "orgAddress",
          "type": "address"
        }
      ],
      "name": "getOrgName",
      "outputs": [
        {
          "internalType": "string",
          "name": "",
          "type": "string"
        }
      ],
      "stateMutability": "view",
      "type": "function",
      "constant": true
    },
    {
      "inputs": [
        {
          "internalType": "address",
          "name": "orgAddress",
          "type": "address"
        }
      ],
      "name": "getOrgUserName",
      "outputs": [
        {
          "internalType": "string",
          "name": "",
          "type": "string"
        }
      ],
      "stateMutability": "view",
      "type": "function",
      "constant": true
    },
    {
      "inputs": [
        {
          "internalType": "address",
          "name": "orgAddress",
          "type": "address"
        }
      ],
      "name": "getOrgEmail",
      "outputs": [
        {
          "internalType": "string",
          "name": "",
          "type": "string"
        }
      ],
      "stateMutability": "view",
      "type": "function",
      "constant": true
    },
    {
      "inputs": [
        {
          "internalType": "address",
          "name": "orgAddress",
          "type": "address"
        },
        {
          "internalType": "string",
          "name": "newOrgName",
          "type": "string"
        },
        {
          "internalType": "string",
          "name": "newUserName",
          "type": "string"
        },
        {
          "internalType": "string",
          "name": "newEmail",
          "type": "string"
        }
      ],
      "name": "updateOrgDetails",
      "outputs": [],
      "stateMutability": "nonpayable",
      "type": "function"
    },
    {
      "inputs": [],
      "name": "getUserAddress",
      "outputs": [
        {
          "internalType": "address",
          "name": "",
          "type": "address"
        }
      ],
      "stateMutability": "view",
      "type": "function",
      "constant": true
    },
    {
      "inputs": [
        {
          "internalType": "address",
          "name": "userAddress",
          "type": "address"
        },
        {
          "internalType": "string",
          "name": "userName",
          "type": "string"
        },
        {
          "internalType": "string",
          "name": "email",
          "type": "string"
        }
      ],
      "name": "addUser",
      "outputs": [],
      "stateMutability": "nonpayable",
      "type": "function"
    },
    {
      "inputs": [
        {
          "internalType": "address",
          "name": "userAddress",
          "type": "address"
        }
      ],
      "name": "isUser",
      "outputs": [
        {
          "internalType": "bool",
          "name": "",
          "type": "bool"
        }
      ],
      "stateMutability": "view",
      "type": "function",
      "constant": true
    },
    {
      "inputs": [
        {
          "internalType": "address",
          "name": "userAddress",
          "type": "address"
        }
      ],
      "name": "getUserName",
      "outputs": [
        {
          "internalType": "string",
          "name": "",
          "type": "string"
        }
      ],
      "stateMutability": "view",
      "type": "function",
      "constant": true
    },
    {
      "inputs": [
        {
          "internalType": "address",
          "name": "userAddress",
          "type": "address"
        }
      ],
      "name": "getEmail",
      "outputs": [
        {
          "internalType": "string",
          "name": "",
          "type": "string"
        }
      ],
      "stateMutability": "view",
      "type": "function",
      "constant": true
    },
    {
      "inputs": [
        {
          "internalType": "address",
          "name": "userAddress",
          "type": "address"
        },
        {
          "internalType": "string",
          "name": "newUserName",
          "type": "string"
        },
        {
          "internalType": "string",
          "name": "newEmail",
          "type": "string"
        }
      ],
      "name": "updateUser",
      "outputs": [],
      "stateMutability": "nonpayable",
      "type": "function"
    },
    {
      "inputs": [],
      "name": "getOwnerAddress",
      "outputs": [
        {
          "internalType": "address",
          "name": "",
          "type": "address"
        }
      ],
      "stateMutability": "view",
      "type": "function",
      "constant": true
    },
    {
      "inputs": [
        {
          "internalType": "uint256",
          "name": "_electionId",
          "type": "uint256"
        },
        {
          "internalType": "uint256[]",
          "name": "_candidateIndexes",
          "type": "uint256[]"
        }
      ],
      "name": "Vote",
      "outputs": [],
      "stateMutability": "nonpayable",
      "type": "function"
    },
    {
      "inputs": [
        {
          "internalType": "address",
          "name": "userAddress",
          "type": "address"
        }
      ],
      "name": "getRecentlyVotedElectionIDs",
      "outputs": [
        {
          "internalType": "uint256[]",
          "name": "",
          "type": "uint256[]"
        }
      ],
      "stateMutability": "view",
      "type": "function",
      "constant": true
    }
  ],
  "bytecode": "0x608060405234801561001057600080fd5b5060028054600160a060020a03191633179055613bb2806100326000396000f3fe608060405234801561001057600080fd5b506004361061021c5760e060020a6000350462a3ea7c811461022157806309e33d07146102475780630c4f65bd1461025c57806310e8b22d14610281578063119aeab714610294578063128ff7e9146102a757806319f4dea8146102ba5780631d8af509146102dd5780631e5862b5146102fe57806324785b9e1461031e5780632ed3740914610331578063396aabeb146103515780633ee95f00146103645780634209fff1146103775780634fa7353c1461038a57806352675be31461039d5780635bef3e40146103b05780635e6fef01146103d05780636c24296e146103f45780636c628127146104075780637a372c021461041a5780637b0497dc1461042d5780637eb507d71461044d578063840e73f8146104605780638ac7775b146104735780638ed9df771461048657806393a9aa8114610499578063997d2830146104ac578063a87430ba146104b5578063ac6b4f75146104d6578063b024419e146104e9578063b476cbce146104fc578063bbc0c1a21461051e578063bec9e91114610531578063c89782a214610544578063cea6a72c14610557578063cf4a60601461056a578063d7554a681461057d578063d84f55ee14610590578063e220cde5146105a3578063e8ededa6146105ab578063ebc3eee8146105cc578063ee96e3be146105d2578063f4dee31a146105e5578063fa3dd69c146105f8578063fad178fe1461060b575b600080fd5b61023461022f366004612e28565b61061e565b6040519081526020015b60405180910390f35b61025a610255366004612e6e565b6106f4565b005b600254600160a060020a03165b604051600160a060020a03909116815260200161023e565b61025a61028f366004612ea3565b6107f7565b61025a6102a2366004612f16565b610891565b61025a6102b536600461307b565b610a1e565b6102cd6102c8366004613124565b610c4e565b604051901515815260200161023e565b6102f06102eb366004613146565b610c7e565b60405161023e9291906131b6565b61031161030c366004613124565b610d47565b60405161023e91906131d7565b6102cd61032c366004612e6e565b610e58565b61034461033f366004613124565b610ea3565b60405161023e9190613248565b61023461035f36600461325b565b610f52565b610234610372366004612e6e565b610ff4565b6102cd610385366004613124565b61103c565b610344610398366004613124565b611062565b6103446103ab366004612e6e565b6110c7565b6103c36103be366004613124565b611113565b60405161023e919061327d565b6103e36103de366004612e6e565b611284565b60405161023e9594939291906132de565b61025a61040236600461333f565b6114db565b610344610415366004613124565b6115c9565b61034461042836600461325b565b6115f3565b61044061043b366004613124565b61171e565b60405161023e9190613426565b6103c361045b366004612e6e565b61178c565b61034461046e366004612e6e565b611918565b61025a610481366004613439565b611967565b610344610494366004612e6e565b611a25565b6103446104a736600461325b565b611a74565b61023460055481565b6104c86104c3366004613124565b611b19565b60405161023e929190613474565b6103446104e436600461325b565b611bc2565b6103446104f736600461325b565b611c67565b61050f61050a366004613124565b611d0c565b60405161023e939291906134a2565b61025a61052c3660046134e5565b611ec6565b61023461053f366004613533565b611f27565b610344610552366004613124565b612012565b61025a610565366004612f16565b612039565b61025a61057836600461325b565b6121bf565b61025a61058b366004612ea3565b6123e7565b61034461059e366004613124565b6124d1565b6103c3612513565b6105be6105b9366004612e6e565b61264d565b60405161023e92919061356a565b33610269565b6104406105e0366004613124565b6127dc565b61025a6105f336600461358f565b6128b2565b610344610606366004612e6e565b612a75565b61025a61061936600461364d565b612ac5565b6000808311801561063157506005548311155b6106595760405160e560020a62461bcd028152600401610650906136e6565b60405180910390fd5b600083815260046020526040812060020154905b818110156106ea5783805190602001206004600087815260200190815260200160002060020182815481106106a4576106a461371d565b90600052602060002090600502016000016040516106c291906137e2565b6040518091039020036106d85791506106ee9050565b806106e281613808565b91505061066d565b5090505b92915050565b336000908152602081905260408120805461070e90613737565b905011806107265750600254600160a060020a031633145b6107455760405160e560020a62461bcd02815260040161065090613821565b60008111801561075757506005548111155b80156107795750600081815260046020526040902060019081015460ff161515145b6107dc5760405160e560020a62461bcd02815260206004820152602860248201527f456c656374696f6e20646f6573206e6f74206578697374206f72206973206e6f604482015260c060020a677420616374697665026064820152608401610650565b6000908152600460205260409020600101805460ff19169055565b6108008361103c565b6108485760405160e560020a62461bcd0281526020600482015260136024820152606a60020a72155cd95c88191bd95cc81b9bdd08195e1a5cdd026044820152606401610650565b600160a060020a0383166000908152600360205260409020825115610874578061087284826138d0565b505b81511561088b576001810161088983826138d0565b505b50505050565b33600090815260208190526040812080546108ab90613737565b905011806108c35750600254600160a060020a031633145b6108e25760405160e560020a62461bcd02815260040161065090613821565b6000851180156108f457506005548511155b6109135760405160e560020a62461bcd028152600401610650906136e6565b60008581526004602052604090206001015460ff166109475760405160e560020a62461bcd0281526004016106509061398b565b6000858152600460209081526040808320815160a081018352888152808401889052918201869052606082018590526080820184905260020180546001810182559084529190922082516005909202019081906109a490826138d0565b50602082015160018201906109b990826138d0565b50604082015160028201906109ce90826138d0565b50606082015160038201906109e390826138d0565b50608082015181600401555050600080516020613b5d8339815191528585604051610a0f9291906131b6565b60405180910390a15050505050565b3360009081526020819052604081208054610a3890613737565b90501180610a505750600254600160a060020a031633145b610a6f5760405160e560020a62461bcd02815260040161065090613821565b600085118015610a8157506005548511155b610aa05760405160e560020a62461bcd028152600401610650906136e6565b60008581526004602052604090206001015460ff16610ad45760405160e560020a62461bcd0281526004016106509061398b565b60005b8451811015610c4657600460008781526020019081526020016000206002016040518060a00160405280878481518110610b1357610b1361371d565b60200260200101518152602001868481518110610b3257610b3261371d565b60200260200101518152602001858481518110610b5157610b5161371d565b60200260200101518152602001848481518110610b7057610b7061371d565b60209081029190910181015182526000918101829052835460018101855593825290208151919260050201908190610ba890826138d0565b5060208201516001820190610bbd90826138d0565b5060408201516002820190610bd290826138d0565b5060608201516003820190610be790826138d0565b50608082015181600401555050600080516020613b5d83398151915286868381518110610c1657610c1661371d565b6020026020010151604051610c2c9291906131b6565b60405180910390a180610c3e81613808565b915050610ad7565b505050505050565b600160a060020a03811660009081526020819052604081208054829190610c7490613737565b9050119050919050565b60016020528160005260406000208181548110610c9a57600080fd5b906000526020600020906002020160009150915050806000015490806001018054610cc490613737565b80601f0160208091040260200160405190810160405280929190818152602001828054610cf090613737565b8015610d3d5780601f10610d1257610100808354040283529160200191610d3d565b820191906000526020600020905b815481529060010190602001808311610d2057829003601f168201915b5050505050905082565b600160a060020a0381166000908152600160209081526040808320805482518185028101850190935280835260609492939192909184015b82821015610e4d578382906000526020600020906002020160405180604001604052908160008201548152602001600182018054610dbc90613737565b80601f0160208091040260200160405190810160405280929190818152602001828054610de890613737565b8015610e355780601f10610e0a57610100808354040283529160200191610e35565b820191906000526020600020905b815481529060010190602001808311610e1857829003601f168201915b50505050508152505081526020019060010190610d7f565b505050509050919050565b60008082118015610e6b57506005548211155b610e8a5760405160e560020a62461bcd028152600401610650906136e6565b5060009081526004602052604090206001015460ff1690565b600160a060020a0381166000908152602081905260409020600101805460609190610ecd90613737565b80601f0160208091040260200160405190810160405280929190818152602001828054610ef990613737565b8015610f465780601f10610f1b57610100808354040283529160200191610f46565b820191906000526020600020905b815481529060010190602001808311610f2957829003601f168201915b50505050509050919050565b60008083118015610f6557506005548311155b610f845760405160e560020a62461bcd028152600401610650906136e6565b6000838152600460205260409020600201548210610fb75760405160e560020a62461bcd028152600401610650906139c2565b6000838152600460205260409020600201805483908110610fda57610fda61371d565b906000526020600020906005020160040154905092915050565b6000808211801561100757506005548211155b6110265760405160e560020a62461bcd028152600401610650906136e6565b5060009081526004602052604090206002015490565b600160a060020a03811660009081526003602052604081208054829190610c7490613737565b600160a060020a0381166000908152600360205260408120600181018054606093919061108e90613737565b905011156110c157806001016040516020016110aa91906137e2565b604051602081830303815290604052915050919050565b50919050565b60606000821180156110db57506005548211155b6110fa5760405160e560020a62461bcd028152600401610650906136e6565b60008281526004602052604090208054610ecd90613737565b600160a060020a038116600090815260016020526040812054606091816001604060020a0381111561114757611147612d6f565b60405190808252806020026020018201604052801561117a57816020015b60608152602001906001900390816111655790505b50905060005b8281101561127c57600160a060020a03851660009081526001602052604090208054829081106111b2576111b261371d565b906000526020600020906002020160010180546111ce90613737565b80601f01602080910402602001604051908101604052809291908181526020018280546111fa90613737565b80156112475780601f1061121c57610100808354040283529160200191611247565b820191906000526020600020905b81548152906001019060200180831161122a57829003601f168201915b505050505082828151811061125e5761125e61371d565b6020026020010181905250808061127490613808565b915050611180565b509392505050565b60046020526000908152604090208054819061129f90613737565b80601f01602080910402602001604051908101604052809291908181526020018280546112cb90613737565b80156113185780601f106112ed57610100808354040283529160200191611318565b820191906000526020600020905b8154815290600101906020018083116112fb57829003601f168201915b5050506001840154600385018054949560ff90921694919350915061133c90613737565b80601f016020809104026020016040519081016040528092919081815260200182805461136890613737565b80156113b55780601f1061138a576101008083540402835291602001916113b5565b820191906000526020600020905b81548152906001019060200180831161139857829003601f168201915b5050505050908060040180546113ca90613737565b80601f01602080910402602001604051908101604052809291908181526020018280546113f690613737565b80156114435780601f1061141857610100808354040283529160200191611443565b820191906000526020600020905b81548152906001019060200180831161142657829003601f168201915b50505050509080600501805461145890613737565b80601f016020809104026020016040519081016040528092919081815260200182805461148490613737565b80156114d15780601f106114a6576101008083540402835291602001916114d1565b820191906000526020600020905b8154815290600101906020018083116114b457829003601f168201915b5050505050905085565b33600090815260208190526040812080546114f590613737565b9050118061150d5750600254600160a060020a031633145b61152c5760405160e560020a62461bcd02815260040161065090613821565b6005805490600061153c83613808565b909155505060055460009081526004602052604090208061155d86826138d0565b506001818101805460ff191690911790556003810161157c85826138d0565b506004810161158b84826138d0565b506005810161159a83826138d0565b506115a83360055487612c7b565b600080516020613b3d83398151915260055486604051610a0f9291906131b6565b600160a060020a0381166000908152602081905260409020600201805460609190610ecd90613737565b606060008311801561160757506005548311155b6116265760405160e560020a62461bcd028152600401610650906136e6565b60008381526004602052604090206002015482106116595760405160e560020a62461bcd028152600401610650906139c2565b600083815260046020526040902060020180548390811061167c5761167c61371d565b9060005260206000209060050201600101805461169890613737565b80601f01602080910402602001604051908101604052809291908181526020018280546116c490613737565b80156117115780601f106116e657610100808354040283529160200191611711565b820191906000526020600020905b8154815290600101906020018083116116f457829003601f168201915b5050505050905092915050565b600160a060020a038116600090815260036020908152604091829020600201805483518184028101840190945280845260609392830182828015610f4657602002820191906000526020600020905b81548152602001906001019080831161176d5750505050509050919050565b60606000821180156117a057506005548211155b6117bf5760405160e560020a62461bcd028152600401610650906136e6565b60008281526004602052604081206002015490816001604060020a038111156117ea576117ea612d6f565b60405190808252806020026020018201604052801561181d57816020015b60608152602001906001900390816118085790505b50905060005b8281101561127c57600085815260046020526040902060020180548290811061184e5761184e61371d565b9060005260206000209060050201600001805461186a90613737565b80601f016020809104026020016040519081016040528092919081815260200182805461189690613737565b80156118e35780601f106118b8576101008083540402835291602001916118e3565b820191906000526020600020905b8154815290600101906020018083116118c657829003601f168201915b50505050508282815181106118fa576118fa61371d565b6020026020010181905250808061191090613808565b915050611823565b606060008211801561192c57506005548211155b61194b5760405160e560020a62461bcd028152600401610650906136e6565b60008281526004602052604090206005018054610ecd90613737565b61197084610c4e565b6119b75760405160e560020a62461bcd0281526020600482015260126024820152607260020a7113dc99c8191bd95cc81b9bdd08195e1a5cdd026044820152606401610650565b600160a060020a03841660009081526020819052604090206119d984826138d0565b50600160a060020a03841660009081526020819052604090206001016119ff83826138d0565b50600160a060020a038416600090815260208190526040902060020161088982826138d0565b6060600082118015611a3957506005548211155b611a585760405160e560020a62461bcd028152600401610650906136e6565b60008281526004602052604090206003018054610ecd90613737565b6060600083118015611a8857506005548311155b611aa75760405160e560020a62461bcd028152600401610650906136e6565b6000838152600460205260409020600201548210611ada5760405160e560020a62461bcd028152600401610650906139c2565b6000838152600460205260409020600201805483908110611afd57611afd61371d565b9060005260206000209060050201600201805461169890613737565b600360205260009081526040902080548190611b3490613737565b80601f0160208091040260200160405190810160405280929190818152602001828054611b6090613737565b8015611bad5780601f10611b8257610100808354040283529160200191611bad565b820191906000526020600020905b815481529060010190602001808311611b9057829003601f168201915b505050505090806001018054610cc490613737565b6060600083118015611bd657506005548311155b611bf55760405160e560020a62461bcd028152600401610650906136e6565b6000838152600460205260409020600201548210611c285760405160e560020a62461bcd028152600401610650906139c2565b6000838152600460205260409020600201805483908110611c4b57611c4b61371d565b9060005260206000209060050201600301805461169890613737565b6060600083118015611c7b57506005548311155b611c9a5760405160e560020a62461bcd028152600401610650906136e6565b6000838152600460205260409020600201548210611ccd5760405160e560020a62461bcd028152600401610650906139c2565b6000838152600460205260409020600201805483908110611cf057611cf061371d565b9060005260206000209060050201600001805461169890613737565b600060208190529081526040902080548190611d2790613737565b80601f0160208091040260200160405190810160405280929190818152602001828054611d5390613737565b8015611da05780601f10611d7557610100808354040283529160200191611da0565b820191906000526020600020905b815481529060010190602001808311611d8357829003601f168201915b505050505090806001018054611db590613737565b80601f0160208091040260200160405190810160405280929190818152602001828054611de190613737565b8015611e2e5780601f10611e0357610100808354040283529160200191611e2e565b820191906000526020600020905b815481529060010190602001808311611e1157829003601f168201915b505050505090806002018054611e4390613737565b80601f0160208091040260200160405190810160405280929190818152602001828054611e6f90613737565b8015611ebc5780601f10611e9157610100808354040283529160200191611ebc565b820191906000526020600020905b815481529060010190602001808311611e9f57829003601f168201915b5050505050905083565b604080516060810182528481526020808201859052818301849052336000908152908190529190912081518190611efd90826138d0565b5060208201516001820190611f1290826138d0565b5060408201516002820190610c4690826138d0565b600160a060020a0382166000908152600160205260408120815b8154811015611fce578380519060200120828281548110611f6457611f6461371d565b9060005260206000209060020201600101604051611f8291906137e2565b604051809103902003611fbc57818181548110611fa157611fa161371d565b906000526020600020906002020160000154925050506106ee565b80611fc681613808565b915050611f41565b5060405160e560020a62461bcd0281526020600482015260126024820152607260020a71115b1958dd1a5bdb881b9bdd08199bdd5b99026044820152606401610650565b600160a060020a0381166000908152602081905260409020805460609190610ecd90613737565b336000908152602081905260408120805461205390613737565b9050118061206b5750600254600160a060020a031633145b61208a5760405160e560020a62461bcd02815260040161065090613821565b60008511801561209c57506005548511155b6120bb5760405160e560020a62461bcd028152600401610650906136e6565b6000858152600460205260409020806120d486826138d0565b50600381016120e385826138d0565b50600481016120f284826138d0565b506005810161210183826138d0565b50336000908152600160205260408120905b815481101561218e578782828154811061212f5761212f61371d565b9060005260206000209060020201600001540361217c57868282815481106121595761215961371d565b9060005260206000209060020201600101908161217691906138d0565b5061218e565b8061218681613808565b915050612113565b50600080516020613b3d83398151915287876040516121ae9291906131b6565b60405180910390a150505050505050565b33600090815260208190526040812080546121d990613737565b905011806121f15750600254600160a060020a031633145b6122105760405160e560020a62461bcd02815260040161065090613821565b60008211801561222257506005548211155b6122415760405160e560020a62461bcd028152600401610650906136e6565b60008281526004602052604090206002015481106122745760405160e560020a62461bcd028152600401610650906139c2565b805b600083815260046020526040902060020154612294906001906139f9565b81101561236c5760008381526004602052604090206002016122b7826001613a0c565b815481106122c7576122c761371d565b90600052602060002090600502016004600085815260200190815260200160002060020182815481106122fc576122fc61371d565b60009182526020909120600590910201806123178382613a1f565b5060018181019061232a90840182613a1f565b5060028181019061233d90840182613a1f565b5060038181019061235090840182613a1f565b506004918201549101558061236481613808565b915050612276565b50600082815260046020526040902060020180548061238d5761238d613af0565b600082815260208120600019909201916005830201906123ad8282612cd2565b6123bb600183016000612cd2565b6123c9600283016000612cd2565b6123d7600383016000612cd2565b6004820160009055505090555050565b600160a060020a0383166000908152600360205260409020805461240a90613737565b1590506124555760405160e560020a62461bcd0281526020600482015260136024820152606860020a725573657220616c726561647920657869737473026044820152606401610650565b60408051606081018252838152602080820184905282516000808252818301855283850191909152600160a060020a0387168152600390915291909120815181906124a090826138d0565b50602082015160018201906124b590826138d0565b5060408201518051610c46916002840191602090910190612d0f565b600160a060020a038116600090815260036020526040812080546060929082906124fa90613737565b905011156110c1576040516110aa9082906020016137e2565b606060006005546001604060020a0381111561253157612531612d6f565b60405190808252806020026020018201604052801561256457816020015b606081526020019060019003908161254f5790505b50905060005b6005548110156110c15760046000612583836001613a0c565b8152602001908152602001600020600001805461259f90613737565b80601f01602080910402602001604051908101604052809291908181526020018280546125cb90613737565b80156126185780601f106125ed57610100808354040283529160200191612618565b820191906000526020600020905b8154815290600101906020018083116125fb57829003601f168201915b505050505082828151811061262f5761262f61371d565b6020026020010181905250808061264590613808565b91505061256a565b60608060008311801561266257506005548311155b6126815760405160e560020a62461bcd028152600401610650906136e6565b600083815260046020526040812060028101549091906001604060020a038111156126ae576126ae612d6f565b6040519080825280602002602001820160405280156126d7578160200160208202803683370190505b50905060005b600283015481101561273f578260020181815481106126fe576126fe61371d565b9060005260206000209060050201600401548282815181106127225761272261371d565b60209081029190910101528061273781613808565b9150506126dd565b50816000018181805461275190613737565b80601f016020809104026020016040519081016040528092919081815260200182805461277d90613737565b80156127ca5780601f1061279f576101008083540402835291602001916127ca565b820191906000526020600020905b8154815290600101906020018083116127ad57829003601f168201915b50505050509150935093505050915091565b600160a060020a038116600090815260016020526040812054606091816001604060020a0381111561281057612810612d6f565b604051908082528060200260200182016040528015612839578160200160208202803683370190505b50905060005b8281101561127c57600160a060020a03851660009081526001602052604090208054829081106128715761287161371d565b9060005260206000209060020201600001548282815181106128955761289561371d565b6020908102919091010152806128aa81613808565b91505061283f565b33600090815260208190526040812080546128cc90613737565b905011806128e45750600254600160a060020a031633145b6129035760405160e560020a62461bcd02815260040161065090613821565b60008611801561291557506005548611155b6129345760405160e560020a62461bcd028152600401610650906136e6565b60008681526004602052604090206002015485106129675760405160e560020a62461bcd028152600401610650906139c2565b600086815260046020526040812060020180548790811061298a5761298a61371d565b906000526020600020906005020190508480519060200120816000016040516129b391906137e2565b6040518091039020146129cd57806129cb86826138d0565b505b835160208501206040516129e59060018401906137e2565b604051809103902014612a025760018101612a0085826138d0565b505b82516020840120604051612a1a9060028401906137e2565b604051809103902014612a375760028101612a3584826138d0565b505b81516020830120604051612a4f9060038401906137e2565b604051809103902014612a6c5760038101612a6a83826138d0565b505b50505050505050565b6060600082118015612a8957506005548211155b612aa85760405160e560020a62461bcd028152600401610650906136e6565b6000828152600460208190526040909120018054610ecd90613737565b600082118015612ad757506005548211155b612af65760405160e560020a62461bcd028152600401610650906136e6565b6000828152600460205260409020600181015460ff16612b2b5760405160e560020a62461bcd0281526004016106509061398b565b33600090815260068201602052604090205460ff1615612b905760405160e560020a62461bcd02815260206004820152601660248201527f596f75206861766520616c726561647920766f746564000000000000000000006044820152606401610650565b60005b8251811015612c005781600201838281518110612bb257612bb261371d565b602002602001015181548110612bca57612bca61371d565b600091825260208220600460059092020101805491612be883613808565b91905055508080612bf890613808565b915050612b93565b503360008181526006830160209081526040808320805460ff19166001908117909155600383528184206002018054918201815584529190922001859055517f080e2b87a3c8996025fe2aa92236ac4f958879a65c31df1b67991f80294fde8e91612c6e9186918691613b0a565b60405180910390a1505050565b600160a060020a03831660009081526001602081815260408084208151808301909252868252818301868152815480860183559186529290942081516002909502019384559051909291820190610c4690826138d0565b508054612cde90613737565b6000825580601f10612cee575050565b601f016020900490600052602060002090810190612d0c9190612d5a565b50565b828054828255906000526020600020908101928215612d4a579160200282015b82811115612d4a578251825591602001919060010190612d2f565b50612d56929150612d5a565b5090565b5b80821115612d565760008155600101612d5b565b60e060020a634e487b710260009081526041600452602490fd5b604051601f8201601f191681016001604060020a0381118282101715612db157612db1612d6f565b604052919050565b600082601f830112612dca57600080fd5b81356001604060020a03811115612de357612de3612d6f565b612df6601f8201601f1916602001612d89565b818152846020838601011115612e0b57600080fd5b816020850160208301376000918101602001919091529392505050565b60008060408385031215612e3b57600080fd5b8235915060208301356001604060020a03811115612e5857600080fd5b612e6485828601612db9565b9150509250929050565b600060208284031215612e8057600080fd5b5035919050565b8035600160a060020a0381168114612e9e57600080fd5b919050565b600080600060608486031215612eb857600080fd5b612ec184612e87565b925060208401356001604060020a0380821115612edd57600080fd5b612ee987838801612db9565b93506040860135915080821115612eff57600080fd5b50612f0c86828701612db9565b9150509250925092565b600080600080600060a08688031215612f2e57600080fd5b8535945060208601356001604060020a0380821115612f4c57600080fd5b612f5889838a01612db9565b95506040880135915080821115612f6e57600080fd5b612f7a89838a01612db9565b94506060880135915080821115612f9057600080fd5b612f9c89838a01612db9565b93506080880135915080821115612fb257600080fd5b50612fbf88828901612db9565b9150509295509295909350565b60006001604060020a03821115612fe557612fe5612d6f565b5060209081020190565b600082601f83011261300057600080fd5b8135602061301561301083612fcc565b612d89565b8281529181028401810191818101908684111561303157600080fd5b8286015b848110156130705780356001604060020a038111156130545760008081fd5b6130628986838b0101612db9565b845250918301918301613035565b509695505050505050565b600080600080600060a0868803121561309357600080fd5b8535945060208601356001604060020a03808211156130b157600080fd5b6130bd89838a01612fef565b955060408801359150808211156130d357600080fd5b6130df89838a01612fef565b945060608801359150808211156130f557600080fd5b61310189838a01612fef565b9350608088013591508082111561311757600080fd5b50612fbf88828901612fef565b60006020828403121561313657600080fd5b61313f82612e87565b9392505050565b6000806040838503121561315957600080fd5b61316283612e87565b946020939093013593505050565b6000815180845260005b818110156131965760208185018101518683018201520161317a565b506000602082860101526020601f19601f83011685010191505092915050565b8281526040602082015260006131cf6040830184613170565b949350505050565b60208082528251828201819052600091906040908185019080840286018301878501865b8381101561323a57888303603f1901855281518051845287015187840187905261322787850182613170565b95880195935050908601906001016131fb565b509098975050505050505050565b60208152600061313f6020830184613170565b6000806040838503121561326e57600080fd5b50508035926020909101359150565b600060208083018184528085518083526040860191506040848202870101925083870160005b828110156132d157603f198886030184526132bf858351613170565b945092850192908501906001016132a3565b5092979650505050505050565b60a0815260006132f160a0830188613170565b8615156020840152828103604084015261330b8187613170565b9050828103606084015261331f8186613170565b905082810360808401526133338185613170565b98975050505050505050565b6000806000806080858703121561335557600080fd5b84356001604060020a038082111561336c57600080fd5b61337888838901612db9565b9550602087013591508082111561338e57600080fd5b61339a88838901612db9565b945060408701359150808211156133b057600080fd5b6133bc88838901612db9565b935060608701359150808211156133d257600080fd5b506133df87828801612db9565b91505092959194509250565b600081518084526020808501945080840160005b8381101561341b578151875295820195908201906001016133ff565b509495945050505050565b60208152600061313f60208301846133eb565b6000806000806080858703121561344f57600080fd5b61345885612e87565b935060208501356001604060020a038082111561338e57600080fd5b6040815260006134876040830185613170565b82810360208401526134998185613170565b95945050505050565b6060815260006134b56060830186613170565b82810360208401526134c78186613170565b905082810360408401526134db8185613170565b9695505050505050565b6000806000606084860312156134fa57600080fd5b83356001604060020a038082111561351157600080fd5b61351d87838801612db9565b94506020860135915080821115612edd57600080fd5b6000806040838503121561354657600080fd5b61354f83612e87565b915060208301356001604060020a03811115612e5857600080fd5b60408152600061357d6040830185613170565b828103602084015261349981856133eb565b60008060008060008060c087890312156135a857600080fd5b863595506020870135945060408701356001604060020a03808211156135cd57600080fd5b6135d98a838b01612db9565b955060608901359150808211156135ef57600080fd5b6135fb8a838b01612db9565b9450608089013591508082111561361157600080fd5b61361d8a838b01612db9565b935060a089013591508082111561363357600080fd5b5061364089828a01612db9565b9150509295509295509295565b6000806040838503121561366057600080fd5b823591506020808401356001604060020a0381111561367e57600080fd5b8401601f8101861361368f57600080fd5b803561369d61301082612fcc565b818152908302820183019083810190888311156136b957600080fd5b928401925b828410156136d7578335825292840192908401906136be565b80955050505050509250929050565b60208082526017908201527f456c656374696f6e20646f6573206e6f74206578697374000000000000000000604082015260600190565b60e060020a634e487b710260009081526032600452602490fd5b60028104600182168061374b57607f821691505b6020821081036110c15760e060020a634e487b710260009081526022600452602490fd5b6000815461377c81613737565b6001828116801561379457600181146137a9576137d8565b60ff19841687528215158302870194506137d8565b8560005260208060002060005b858110156137cf5781548a8201529084019082016137b6565b50505082870194505b5050505092915050565b600061313f828461376f565b60e060020a634e487b710260009081526011600452602490fd5b60006001820161381a5761381a6137ee565b5060010190565b6020808252602a908201527f4f6e6c7920746865206f7267616e697a65722063616e20706572666f726d2074604082015260b160020a693434b99030b1ba34b7b702606082015260800190565b601f8211156138b4576000818152602081206020601f860104810160208610156138955750805b6020601f860104820191505b81811015610c46578281556001016138a1565b505050565b6002808302600893909302900a6000190419161790565b81516001604060020a038111156138e9576138e9612d6f565b6138fd816138f78454613737565b8461386e565b602080601f83116001811461392c576000841561391a5750858301515b61392485826138b9565b865550610c46565b600085815260208120601f198616915b8281101561395b5788860151825594840194600190910190840161393c565b508582101561397b57878501516008601f88160260020a60001904191681555b5050505050600202600101905550565b60208082526016908201527f456c656374696f6e206973206e6f742061637469766500000000000000000000604082015260600190565b60208082526018908201527f43616e64696461746520646f6573206e6f742065786973740000000000000000604082015260600190565b818103818111156106ee576106ee6137ee565b808201808211156106ee576106ee6137ee565b818103613a2a575050565b613a348254613737565b6001604060020a03811115613a4b57613a4b612d6f565b613a59816138f78454613737565b6000601f821160018114613a875760008315613a755750848201545b613a7f84826138b9565b855550610889565b600085815260209020601f19841690600086815260209020845b83811015613ac15782860154825560019586019590910190602001613aa1565b508583101561397b57818501546008601f88160260020a60001904191681555050505050600202600101905550565b60e060020a634e487b710260009081526031600452602490fd5b838152606060208201526000613b2360608301856133eb565b9050600160a060020a038316604083015294935050505056fe52be7c4e77b4de76b7607d621492061fe13b58597e72dfb5e51ab8f6187ed141e83b2a43e7e82d975c8a0a6d2f045153c869e111136a34d1889ab7b598e396a3a26469706673582212203a813abeecb712ae32d485f786b6db44fc688201803f485865f53b51a855cfee64736f6c63430008140033",
  "immutableReferences": {},
  "source": "// SPDX-License-Identifier: MIT\r\npragma solidity  >=0.4.21 <=0.8.20;\r\npragma experimental ABIEncoderV2;\r\n\r\n\r\ncontract DecentralizedVoting {\r\n    \r\n\r\n    mapping(address => UserOrg) public org;\r\n\r\n    struct UserOrg {\r\n        string orgName;\r\n        string userName;\r\n        string email;\r\n    }\r\n\r\n    mapping (address => CreatedElections[]) public ownedElections;\r\n\r\n    struct CreatedElections {\r\n        uint256 electionId;\r\n        string electionName;\r\n    }\r\n\r\n    address deployer;\r\n\r\n    struct User {\r\n        string userName;\r\n        string email;\r\n        uint[] recentlyVotedIDs;\r\n    }\r\n\r\n    mapping(address => User) public users;\r\n\r\n    struct Candidate {\r\n        string name;\r\n        string position;\r\n        string platform;\r\n        string cdn;\r\n        uint256 voteCount;\r\n    }\r\n\r\n    \r\n\r\n    struct Election {\r\n        string name;\r\n        bool active;\r\n        Candidate[] candidates;\r\n        string startDate;\r\n        string endDate;\r\n        string domainFilter;\r\n        mapping(address => bool) hasVoted;\r\n    }\r\n\r\n    mapping(uint256 => Election) public elections;\r\n    uint256 public electionCount;\r\n\r\n    event ElectionCreated(uint256 electionId, string name);\r\n    event CandidateAdded(uint256 electionId, string name);\r\n    event Voted(uint256 electionId, uint256[] candidateIndex, address voter);\r\n\r\n    modifier onlyOrg() {\r\n        \r\n        require(bytes(org[msg.sender].orgName).length > 0 || msg.sender == deployer, \"Only the organizer can perform this action\");\r\n        _;\r\n    }\r\n\r\n    constructor() public {\r\n        deployer = msg.sender;\r\n    }\r\n\r\n     // Create a new election (only owner)\r\n    function createElection(string memory _name, string memory _startDate, string memory _endDate, string memory _domainFilter) public onlyOrg {\r\n        electionCount++;\r\n        Election storage newElection = elections[electionCount];\r\n        newElection.name = _name;\r\n        newElection.active = true;\r\n        newElection.startDate = _startDate;\r\n        newElection.endDate = _endDate;\r\n        newElection.domainFilter = _domainFilter;\r\n        addToOwnedElections(msg.sender, electionCount, _name);\r\n        emit ElectionCreated(electionCount, _name);\r\n    }\r\n\r\n\r\n\r\n\r\n    \r\n    // Update election details\r\n    function updateElectionDetails(uint256 _electionId, string memory _newName, string memory _startDate, string memory _endDate, string memory _newDomainFilter) public onlyOrg {\r\n        require(_electionId > 0 && _electionId <= electionCount, \"Election does not exist\");\r\n        Election storage election = elections[_electionId];\r\n        \r\n        election.name = _newName;\r\n        election.startDate = _startDate;\r\n        election.endDate = _endDate;\r\n        election.domainFilter = _newDomainFilter;\r\n\r\n        // Update the name in the owned elections\r\n        CreatedElections[] storage electionsList = ownedElections[msg.sender];\r\n        for (uint256 i = 0; i < electionsList.length; i++) {\r\n            if (electionsList[i].electionId == _electionId) {\r\n                electionsList[i].electionName = _newName;\r\n                break;\r\n            }\r\n        }\r\n\r\n        // Emit an event for the update\r\n        emit ElectionCreated(_electionId, _newName);\r\n    }\r\n\r\n\r\n\r\n\r\n    function addToOwnedElections(address organizer, uint256 _electionId, string memory _electionName) internal {\r\n        ownedElections[organizer].push(CreatedElections({\r\n        electionId: _electionId,\r\n        electionName: _electionName\r\n    }));\r\n    }\r\n\r\n    function getOwnedElections(address organizer) public view returns (CreatedElections[] memory) {\r\n        return ownedElections[organizer];\r\n    }\r\n\r\n\r\n\r\n    function getOwnedElectionIds(address organizer) public view returns (uint256[] memory) {\r\n    uint256 count = ownedElections[organizer].length;\r\n    uint256[] memory ids = new uint256[](count);\r\n\r\n    for (uint256 i = 0; i < count; i++) {\r\n        ids[i] = ownedElections[organizer][i].electionId;\r\n    }\r\n\r\n    return ids;\r\n    }\r\n\r\n    function getOwnedElectionNames(address organizer) public view returns (string[] memory) {\r\n        uint256 count = ownedElections[organizer].length;\r\n        string[] memory names = new string[](count);\r\n\r\n        for (uint256 i = 0; i < count; i++) {\r\n            names[i] = ownedElections[organizer][i].electionName;\r\n        }\r\n\r\n        return names;\r\n    }\r\n\r\n    function getElectionIdByName(address organizer, string memory _name) public view returns (uint256) {\r\n    CreatedElections[] storage electionsList = ownedElections[organizer];\r\n    for (uint256 i = 0; i < electionsList.length; i++) {\r\n        if (keccak256(bytes(electionsList[i].electionName)) == keccak256(bytes(_name))) {\r\n            return electionsList[i].electionId;\r\n        }\r\n    }\r\n    revert(\"Election not found\");\r\n    }    \r\n\r\n    // Get election results\r\n    function getElectionResults(uint256 _electionId) public view returns (string memory, uint256[] memory) {\r\n        require(_electionId > 0 && _electionId <= electionCount, \"Election does not exist\");\r\n        Election storage election = elections[_electionId];\r\n\r\n        uint256[] memory votes = new uint256[](election.candidates.length);\r\n        for (uint256 i = 0; i < election.candidates.length; i++) {\r\n            votes[i] = election.candidates[i].voteCount;\r\n        }\r\n\r\n        return (election.name, votes);\r\n    }\r\n    \r\n    // Get election name\r\n    function getElectionName(uint256 _electionId) public view returns (string memory) {\r\n        require(_electionId > 0 && _electionId <= electionCount, \"Election does not exist\");\r\n        return elections[_electionId].name;\r\n    }\r\n\r\n    // Close an election (only owner)\r\n    function closeElection(uint256 _electionId) public onlyOrg {\r\n        require(_electionId > 0 && _electionId <= electionCount && elections[_electionId].active == true, \"Election does not exist or is not active\");\r\n        elections[_electionId].active = false;\r\n    }\r\n\r\n    \r\n    // Get list of all election names\r\n    function getElectionNames() public view returns (string[] memory) {\r\n        string[] memory electionNames = new string[](electionCount);\r\n\r\n        for (uint256 i = 0; i < electionCount; i++) {\r\n            electionNames[i] = elections[i + 1].name;\r\n        }\r\n\r\n        return electionNames;\r\n    }\r\n\r\n    \r\n    // Get election start date\r\n    function getElectionStartDate(uint256 _electionId) public view returns (string memory) {\r\n        require(_electionId > 0 && _electionId <= electionCount, \"Election does not exist\");\r\n        return elections[_electionId].startDate;\r\n    }\r\n\r\n    \r\n    // Get election end date\r\n    function getElectionEndDate(uint256 _electionId) public view returns (string memory) {\r\n        require(_electionId > 0 && _electionId <= electionCount, \"Election does not exist\");\r\n        return elections[_electionId].endDate;\r\n    }\r\n\r\n\r\n    \r\n    // Get election domain filter\r\n    function getElectionDomainFilter(uint256 _electionId) public view returns (string memory) {\r\n        require(_electionId > 0 && _electionId <= electionCount, \"Election does not exist\");\r\n        return elections[_electionId].domainFilter;\r\n    }\r\n\r\n    \r\n\r\n    // Get election status\r\n    function getElectionStatus(uint256 _electionId) public view returns (bool) {\r\n        require(_electionId > 0 && _electionId <= electionCount, \"Election does not exist\");\r\n        return elections[_electionId].active;\r\n    }\r\n\r\n    //end Election\r\n\r\n\r\n    // Add a candidate to an election (only owner)\r\n    function addCandidate(uint256 _electionId, string memory _candidateName, string memory _candidatePosition, string memory _platform, string memory _cdn) public onlyOrg {\r\n        require(_electionId > 0 && _electionId <= electionCount, \"Election does not exist\");\r\n        require(elections[_electionId].active, \"Election is not active\");\r\n\r\n        elections[_electionId].candidates.push(Candidate({ name: _candidateName, voteCount: 0 , position: _candidatePosition , platform: _platform, cdn: _cdn}));\r\n        emit CandidateAdded(_electionId, _candidateName);\r\n    }\r\n\r\n    \r\n    // Add multiple candidates to an election (only owner)\r\n    function addMultipleCandidates(uint256 _electionId, string[] memory _candidateNames, string[] memory _candidatePositions, string[] memory _platforms, string[] memory _cdns) public onlyOrg {\r\n        require(_electionId > 0 && _electionId <= electionCount, \"Election does not exist\");\r\n        require(elections[_electionId].active, \"Election is not active\");\r\n\r\n        for (uint256 i = 0; i < _candidateNames.length; i++) {\r\n            elections[_electionId].candidates.push(Candidate({ name: _candidateNames[i], voteCount: 0 , position: _candidatePositions[i] , platform: _platforms[i], cdn: _cdns[i]}));\r\n            emit CandidateAdded(_electionId, _candidateNames[i]);\r\n        }\r\n    }\r\n\r\n    \r\n    // Update candidate information\r\n    function updateCandidateInfo(uint256 _electionId, uint256 _candidateIndex, string memory _newName, string memory _newPosition, string memory _newPlatform, string memory _newcdn) public onlyOrg {\r\n        require(_electionId > 0 && _electionId <= electionCount, \"Election does not exist\");\r\n        require(_candidateIndex < elections[_electionId].candidates.length, \"Candidate does not exist\");\r\n        \r\n        Candidate storage candidate = elections[_electionId].candidates[_candidateIndex];\r\n        \r\n        if (keccak256(bytes(candidate.name)) != keccak256(bytes(_newName))) {\r\n            candidate.name = _newName;\r\n        }\r\n        \r\n        if (keccak256(bytes(candidate.position)) != keccak256(bytes(_newPosition))) {\r\n            candidate.position = _newPosition;\r\n        }\r\n        \r\n        if (keccak256(bytes(candidate.platform)) != keccak256(bytes(_newPlatform))) {\r\n            candidate.platform = _newPlatform;\r\n        }\r\n\r\n        if (keccak256(bytes(candidate.cdn)) != keccak256(bytes(_newcdn))) {\r\n            candidate.cdn = _newcdn;\r\n        }\r\n        \r\n        // TODO: update the event\r\n    }\r\n\r\n    // Delete a candidate from an election (only owner)\r\n    function deleteCandidate(uint256 _electionId, uint256 _candidateIndex) public onlyOrg {\r\n        require(_electionId > 0 && _electionId <= electionCount, \"Election does not exist\");\r\n        require(_candidateIndex < elections[_electionId].candidates.length, \"Candidate does not exist\");\r\n\r\n        // Remove the candidate by shifting elements to the left\r\n        for (uint256 i = _candidateIndex; i < elections[_electionId].candidates.length - 1; i++) {\r\n            elections[_electionId].candidates[i] = elections[_electionId].candidates[i + 1];\r\n        }\r\n        \r\n        // Remove the last element\r\n        elections[_electionId].candidates.pop();\r\n    }\r\n\r\n    \r\n\r\n    // Get the number of candidates in an election\r\n    function getCandidatesCount(uint256 _electionId) public view returns (uint256) {\r\n        require(_electionId > 0 && _electionId <= electionCount, \"Election does not exist\");\r\n        return elections[_electionId].candidates.length;\r\n    }\r\n\r\n\r\n    \r\n    // Get candidate name\r\n    function getCandidateName(uint256 _electionId, uint256 _candidateIndex) public view returns (string memory) {\r\n        require(_electionId > 0 && _electionId <= electionCount, \"Election does not exist\");\r\n        require(_candidateIndex < elections[_electionId].candidates.length, \"Candidate does not exist\");\r\n        return elections[_electionId].candidates[_candidateIndex].name;\r\n    }\r\n\r\n    \r\n    // Get candidate position\r\n    function getCandidatePosition(uint256 _electionId, uint256 _candidateIndex) public view returns (string memory) {\r\n        require(_electionId > 0 && _electionId <= electionCount, \"Election does not exist\");\r\n        require(_candidateIndex < elections[_electionId].candidates.length, \"Candidate does not exist\");\r\n        return elections[_electionId].candidates[_candidateIndex].position;\r\n    }\r\n\r\n\r\n    //get candidate platform\r\n    function getCandidatePlatform(uint256 _electionId, uint256 _candidateIndex) public view returns (string memory) {\r\n        require(_electionId > 0 && _electionId <= electionCount, \"Election does not exist\");\r\n        require(_candidateIndex < elections[_electionId].candidates.length, \"Candidate does not exist\");\r\n        return elections[_electionId].candidates[_candidateIndex].platform;\r\n    }\r\n\r\n    function getCandidateCdn(uint256 _electionId, uint256 _candidateIndex) public view returns (string memory) {\r\n        require(_electionId > 0 && _electionId <= electionCount, \"Election does not exist\");\r\n        require(_candidateIndex < elections[_electionId].candidates.length, \"Candidate does not exist\");\r\n        return elections[_electionId].candidates[_candidateIndex].cdn;\r\n    }\r\n\r\n\r\n    //get candidate names\r\n    function getCandidateNames(uint256 _electionId) public view returns (string[] memory) {\r\n        require(_electionId > 0 && _electionId <= electionCount, \"Election does not exist\");\r\n\r\n        uint256 candidateCount = elections[_electionId].candidates.length;\r\n        string[] memory candidateNames = new string[](candidateCount);\r\n\r\n        for (uint256 i = 0; i < candidateCount; i++) {\r\n            candidateNames[i] = elections[_electionId].candidates[i].name;\r\n        }\r\n\r\n        return candidateNames;\r\n    }\r\n\r\n    \r\n    //get candidate ID by name\r\n    function getCandidateIDbyName(uint256 _electionId, string memory _candidateName) public view returns (uint256) {\r\n        require(_electionId > 0 && _electionId <= electionCount, \"Election does not exist\");\r\n\r\n        uint256 candidateCount = elections[_electionId].candidates.length;\r\n        for (uint256 i = 0; i < candidateCount; i++) {\r\n            if (keccak256(bytes(elections[_electionId].candidates[i].name)) == keccak256(bytes(_candidateName))) {\r\n                return i;\r\n            }\r\n        }\r\n        return candidateCount;\r\n    }\r\n\r\n\r\n    \r\n    //get candidate votecount\r\n    function getCandidateVoteCount(uint256 _electionId, uint256 _candidateIndex) public view returns (uint256) {\r\n        require(_electionId > 0 && _electionId <= electionCount, \"Election does not exist\");\r\n        require(_candidateIndex < elections[_electionId].candidates.length, \"Candidate does not exist\");\r\n        return elections[_electionId].candidates[_candidateIndex].voteCount;\r\n    }\r\n    //end candidate\r\n\r\n\r\n    //ORG    \r\n    function addOrg(string memory orgName, string memory name, string memory email) public {\r\n        org[msg.sender] = UserOrg(orgName, name, email);\r\n    }    \r\n\r\n    \r\n    function isOrg(address orgAddress) public view returns (bool){\r\n        return bytes(org[orgAddress].orgName).length > 0;\r\n    }\r\n\r\n    \r\n    function getOrgName(address orgAddress) public view returns (string memory){\r\n        return org[orgAddress].orgName;\r\n    }\r\n\r\n    \r\n    function getOrgUserName(address orgAddress) public view returns (string memory){\r\n        return org[orgAddress].userName;\r\n    }\r\n\r\n    function getOrgEmail(address orgAddress) public view returns (string memory) {\r\n        return org[orgAddress].email;\r\n    }\r\n\r\n    \r\n    function updateOrgDetails(address orgAddress, string memory newOrgName, string memory newUserName, string memory newEmail) public {\r\n        require(isOrg(orgAddress), \"Org does not exist\");\r\n        org[orgAddress].orgName = newOrgName;\r\n        org[orgAddress].userName = newUserName;\r\n        org[orgAddress].email = newEmail;\r\n    }\r\n    \r\n    \r\n\r\n    //End ORG\r\n\r\n     function getUserAddress() public view returns (address) {\r\n        return msg.sender;\r\n    }\r\n\r\n    //Voter\r\n    function addUser(address userAddress, string memory userName, string memory email) public {\r\n        require(bytes(users[userAddress].userName).length == 0, \"User already exists\");\r\n        users[userAddress] = User(userName, email, new uint256[](0));\r\n        \r\n    }\r\n\r\n    function isUser(address userAddress) public view returns (bool){\r\n        return bytes(users[userAddress].userName).length > 0;\r\n    }\r\n\r\n   \r\n\r\n    function getUserName(address userAddress) public view returns (string memory){\r\n        User storage user = users[userAddress];\r\n        if(bytes(user.userName).length > 0)\r\n            return string(abi.encodePacked(user.userName));\r\n    }\r\n\r\n    function getEmail(address userAddress) public view returns (string memory){\r\n        User storage user = users[userAddress];\r\n        if(bytes(user.email).length > 0)\r\n            return string(abi.encodePacked(user.email));\r\n    }\r\n\r\n    function updateUser(address userAddress, string memory newUserName, string memory newEmail) public {\r\n        require(isUser(userAddress), \"User does not exist\");\r\n        User storage user = users[userAddress];\r\n        if(bytes(newUserName).length > 0)\r\n            user.userName = newUserName;\r\n        if(bytes(newEmail).length > 0)\r\n            user.email = newEmail;\r\n    }\r\n\r\n    \r\n\r\n    //end voter\r\n\r\n\r\n    function getOwnerAddress() public view returns (address) {\r\n        return deployer;\r\n    }\r\n\r\n    \r\n    // Vote for multiple candidates in an election\r\n    function Vote(uint256 _electionId, uint256[] memory _candidateIndexes) public {\r\n        require(_electionId > 0 && _electionId <= electionCount, \"Election does not exist\");\r\n        Election storage election = elections[_electionId];\r\n\r\n        require(election.active, \"Election is not active\");\r\n        require(!election.hasVoted[msg.sender], \"You have already voted\");\r\n\r\n        for (uint256 i = 0; i < _candidateIndexes.length; i++) {\r\n            election.candidates[_candidateIndexes[i]].voteCount++;\r\n        }\r\n\r\n        election.hasVoted[msg.sender] = true;\r\n        users[msg.sender].recentlyVotedIDs.push(_electionId);\r\n\r\n        emit Voted(_electionId, _candidateIndexes, msg.sender);\r\n    }\r\n\r\n    \r\n    function getRecentlyVotedElectionIDs(address userAddress) public view returns (uint256[] memory) {\r\n        return users[userAddress].recentlyVotedIDs;\r\n    }\r\n\r\n    \r\n\r\n\r\n\r\n}\r\n",
  "sourcePath": "C:\\Users\\dizon\\OneDrive\\Documents\\GitHub\\BlockChain-Based-Voting-System\\contract\\contracts\\Voting.sol",
  "compiler": {
    "name": "solc",
    "version": "0.8.20+commit.a1b79de6.Emscripten.clang"
  },
  "schemaVersion": "3.4.16",
  "updatedAt": "2025-06-01T14:36:45.314Z",
  "networkType": "ethereum",
  "devdoc": {
    "kind": "dev",
    "methods": {},
    "version": 1
  },
  "userdoc": {
    "kind": "user",
    "methods": {},
    "version": 1
  }
}